{
  "address": "0xd31000468Ef3aa1D096234ea191f3a5e77415360",
  "abi": [
    {
      "inputs": [
        {
          "internalType": "address",
          "name": "_feeRecipient",
          "type": "address"
        },
        {
          "internalType": "uint256",
          "name": "_feeAmount",
          "type": "uint256"
        },
        {
          "internalType": "address[]",
          "name": "_tokens",
          "type": "address[]"
        },
        {
          "internalType": "address[]",
          "name": "_stables",
          "type": "address[]"
        },
        {
          "internalType": "uint256[]",
          "name": "_types",
          "type": "uint256[]"
        }
      ],
      "stateMutability": "nonpayable",
      "type": "constructor"
    },
    {
      "anonymous": false,
      "inputs": [
        {
          "indexed": true,
          "internalType": "address",
          "name": "maker",
          "type": "address"
        },
        {
          "indexed": true,
          "internalType": "address",
          "name": "nft",
          "type": "address"
        },
        {
          "indexed": true,
          "internalType": "uint256",
          "name": "tokenType",
          "type": "uint256"
        },
        {
          "indexed": false,
          "internalType": "uint256",
          "name": "amount",
          "type": "uint256"
        }
      ],
      "name": "OrderCancelled",
      "type": "event"
    },
    {
      "anonymous": false,
      "inputs": [
        {
          "indexed": true,
          "internalType": "address",
          "name": "maker",
          "type": "address"
        },
        {
          "indexed": true,
          "internalType": "address",
          "name": "taker",
          "type": "address"
        },
        {
          "indexed": true,
          "internalType": "address",
          "name": "nft",
          "type": "address"
        },
        {
          "indexed": false,
          "internalType": "uint256",
          "name": "tokenType",
          "type": "uint256"
        },
        {
          "indexed": false,
          "internalType": "uint256",
          "name": "amount",
          "type": "uint256"
        },
        {
          "indexed": false,
          "internalType": "uint256",
          "name": "price",
          "type": "uint256"
        }
      ],
      "name": "OrderFilled",
      "type": "event"
    },
    {
      "anonymous": false,
      "inputs": [
        {
          "indexed": true,
          "internalType": "address",
          "name": "maker",
          "type": "address"
        },
        {
          "indexed": true,
          "internalType": "address",
          "name": "nft",
          "type": "address"
        },
        {
          "indexed": true,
          "internalType": "uint256",
          "name": "tokenType",
          "type": "uint256"
        },
        {
          "indexed": false,
          "internalType": "uint256",
          "name": "amount",
          "type": "uint256"
        },
        {
          "indexed": false,
          "internalType": "uint256",
          "name": "price",
          "type": "uint256"
        }
      ],
      "name": "OrderPlaced",
      "type": "event"
    },
    {
      "anonymous": false,
      "inputs": [
        {
          "indexed": true,
          "internalType": "address",
          "name": "maker",
          "type": "address"
        },
        {
          "indexed": true,
          "internalType": "address",
          "name": "nft",
          "type": "address"
        },
        {
          "indexed": true,
          "internalType": "uint256",
          "name": "tokenType",
          "type": "uint256"
        },
        {
          "indexed": false,
          "internalType": "uint256",
          "name": "price",
          "type": "uint256"
        }
      ],
      "name": "OrderUpdated",
      "type": "event"
    },
    {
      "anonymous": false,
      "inputs": [
        {
          "indexed": true,
          "internalType": "address",
          "name": "previousOwner",
          "type": "address"
        },
        {
          "indexed": true,
          "internalType": "address",
          "name": "newOwner",
          "type": "address"
        }
      ],
      "name": "OwnershipTransferred",
      "type": "event"
    },
    {
      "anonymous": false,
      "inputs": [
        {
          "indexed": false,
          "internalType": "address",
          "name": "account",
          "type": "address"
        }
      ],
      "name": "Paused",
      "type": "event"
    },
    {
      "anonymous": false,
      "inputs": [
        {
          "indexed": false,
          "internalType": "address",
          "name": "account",
          "type": "address"
        }
      ],
      "name": "Unpaused",
      "type": "event"
    },
    {
      "inputs": [],
      "name": "FEE_BASE",
      "outputs": [
        {
          "internalType": "uint256",
          "name": "",
          "type": "uint256"
        }
      ],
      "stateMutability": "view",
      "type": "function"
    },
    {
      "inputs": [
        {
          "internalType": "uint256",
          "name": "",
          "type": "uint256"
        }
      ],
      "name": "_userIndexes",
      "outputs": [
        {
          "internalType": "address",
          "name": "",
          "type": "address"
        }
      ],
      "stateMutability": "view",
      "type": "function"
    },
    {
      "inputs": [
        {
          "internalType": "uint256",
          "name": "",
          "type": "uint256"
        }
      ],
      "name": "allowedStables",
      "outputs": [
        {
          "internalType": "address",
          "name": "",
          "type": "address"
        }
      ],
      "stateMutability": "view",
      "type": "function"
    },
    {
      "inputs": [
        {
          "internalType": "uint256",
          "name": "",
          "type": "uint256"
        }
      ],
      "name": "allowedTokens",
      "outputs": [
        {
          "internalType": "address",
          "name": "",
          "type": "address"
        }
      ],
      "stateMutability": "view",
      "type": "function"
    },
    {
      "inputs": [
        {
          "internalType": "uint256",
          "name": "",
          "type": "uint256"
        }
      ],
      "name": "allowedTypes",
      "outputs": [
        {
          "internalType": "uint256",
          "name": "",
          "type": "uint256"
        }
      ],
      "stateMutability": "view",
      "type": "function"
    },
    {
      "inputs": [
        {
          "internalType": "address",
          "name": "_nft",
          "type": "address"
        },
        {
          "internalType": "uint256",
          "name": "_tokenType",
          "type": "uint256"
        }
      ],
      "name": "cancelOrder",
      "outputs": [],
      "stateMutability": "nonpayable",
      "type": "function"
    },
    {
      "inputs": [
        {
          "internalType": "address[]",
          "name": "_list",
          "type": "address[]"
        }
      ],
      "name": "changeAllowedStables",
      "outputs": [],
      "stateMutability": "nonpayable",
      "type": "function"
    },
    {
      "inputs": [
        {
          "internalType": "address[]",
          "name": "_list",
          "type": "address[]"
        }
      ],
      "name": "changeAllowedTokens",
      "outputs": [],
      "stateMutability": "nonpayable",
      "type": "function"
    },
    {
      "inputs": [
        {
          "internalType": "uint256[]",
          "name": "_list",
          "type": "uint256[]"
        }
      ],
      "name": "changeAllowedTypes",
      "outputs": [],
      "stateMutability": "nonpayable",
      "type": "function"
    },
    {
      "inputs": [
        {
          "internalType": "uint256",
          "name": "_fee",
          "type": "uint256"
        }
      ],
      "name": "changeFee",
      "outputs": [],
      "stateMutability": "nonpayable",
      "type": "function"
    },
    {
      "inputs": [
        {
          "internalType": "address",
          "name": "_recipient",
          "type": "address"
        }
      ],
      "name": "changeFeeRecipient",
      "outputs": [],
      "stateMutability": "nonpayable",
      "type": "function"
    },
    {
      "inputs": [],
      "name": "feeAmount",
      "outputs": [
        {
          "internalType": "uint256",
          "name": "",
          "type": "uint256"
        }
      ],
      "stateMutability": "view",
      "type": "function"
    },
    {
      "inputs": [],
      "name": "feeRecipient",
      "outputs": [
        {
          "internalType": "address",
          "name": "",
          "type": "address"
        }
      ],
      "stateMutability": "view",
      "type": "function"
    },
    {
      "inputs": [
        {
          "internalType": "address",
          "name": "_maker",
          "type": "address"
        },
        {
          "internalType": "address",
          "name": "_nft",
          "type": "address"
        },
        {
          "internalType": "uint256",
          "name": "_tokenType",
          "type": "uint256"
        },
        {
          "internalType": "uint256",
          "name": "_amount",
          "type": "uint256"
        },
        {
          "internalType": "address",
          "name": "_stable",
          "type": "address"
        }
      ],
      "name": "fillOrder",
      "outputs": [],
      "stateMutability": "nonpayable",
      "type": "function"
    },
    {
      "inputs": [],
      "name": "getOrders",
      "outputs": [
        {
          "components": [
            {
              "internalType": "address",
              "name": "maker",
              "type": "address"
            },
            {
              "internalType": "address",
              "name": "nft",
              "type": "address"
            },
            {
              "internalType": "uint256",
              "name": "tokenType",
              "type": "uint256"
            },
            {
              "internalType": "uint256",
              "name": "amount",
              "type": "uint256"
            },
            {
              "internalType": "uint256",
              "name": "price",
              "type": "uint256"
            }
          ],
          "internalType": "struct GravisTradingPost.Order[]",
          "name": "orders",
          "type": "tuple[]"
        }
      ],
      "stateMutability": "view",
      "type": "function"
    },
    {
      "inputs": [
        {
          "internalType": "address",
          "name": "_maker",
          "type": "address"
        }
      ],
      "name": "getOrdersByMaker",
      "outputs": [
        {
          "components": [
            {
              "internalType": "address",
              "name": "maker",
              "type": "address"
            },
            {
              "internalType": "address",
              "name": "nft",
              "type": "address"
            },
            {
              "internalType": "uint256",
              "name": "tokenType",
              "type": "uint256"
            },
            {
              "internalType": "uint256",
              "name": "amount",
              "type": "uint256"
            },
            {
              "internalType": "uint256",
              "name": "price",
              "type": "uint256"
            }
          ],
          "internalType": "struct GravisTradingPost.Order[]",
          "name": "",
          "type": "tuple[]"
        }
      ],
      "stateMutability": "view",
      "type": "function"
    },
    {
      "inputs": [
        {
          "internalType": "address",
          "name": "_erc",
          "type": "address"
        }
      ],
      "name": "isStableAllowed",
      "outputs": [
        {
          "internalType": "bool",
          "name": "",
          "type": "bool"
        }
      ],
      "stateMutability": "view",
      "type": "function"
    },
    {
      "inputs": [
        {
          "internalType": "address",
          "name": "_token",
          "type": "address"
        }
      ],
      "name": "isTokenAllowed",
      "outputs": [
        {
          "internalType": "bool",
          "name": "",
          "type": "bool"
        }
      ],
      "stateMutability": "view",
      "type": "function"
    },
    {
      "inputs": [
        {
          "internalType": "uint256",
          "name": "_type",
          "type": "uint256"
        }
      ],
      "name": "isTypeAllowed",
      "outputs": [
        {
          "internalType": "bool",
          "name": "",
          "type": "bool"
        }
      ],
      "stateMutability": "view",
      "type": "function"
    },
    {
      "inputs": [
        {
          "internalType": "address",
          "name": "_user",
          "type": "address"
        }
      ],
      "name": "isUserExists",
      "outputs": [
        {
          "internalType": "bool",
          "name": "",
          "type": "bool"
        }
      ],
      "stateMutability": "view",
      "type": "function"
    },
    {
      "inputs": [
        {
          "internalType": "address",
          "name": "",
          "type": "address"
        },
        {
          "internalType": "address",
          "name": "",
          "type": "address"
        },
        {
          "internalType": "uint256",
          "name": "",
          "type": "uint256"
        },
        {
          "internalType": "bytes",
          "name": "",
          "type": "bytes"
        }
      ],
      "name": "onERC721Received",
      "outputs": [
        {
          "internalType": "bytes4",
          "name": "",
          "type": "bytes4"
        }
      ],
      "stateMutability": "nonpayable",
      "type": "function"
    },
    {
      "inputs": [],
      "name": "owner",
      "outputs": [
        {
          "internalType": "address",
          "name": "",
          "type": "address"
        }
      ],
      "stateMutability": "view",
      "type": "function"
    },
    {
      "inputs": [],
      "name": "pause",
      "outputs": [],
      "stateMutability": "nonpayable",
      "type": "function"
    },
    {
      "inputs": [],
      "name": "paused",
      "outputs": [
        {
          "internalType": "bool",
          "name": "",
          "type": "bool"
        }
      ],
      "stateMutability": "view",
      "type": "function"
    },
    {
      "inputs": [
        {
          "internalType": "address",
          "name": "_nft",
          "type": "address"
        },
        {
          "internalType": "uint256",
          "name": "_tokenType",
          "type": "uint256"
        },
        {
          "internalType": "uint256",
          "name": "_amount",
          "type": "uint256"
        },
        {
          "internalType": "uint256",
          "name": "_price",
          "type": "uint256"
        }
      ],
      "name": "placeOrder",
      "outputs": [],
      "stateMutability": "nonpayable",
      "type": "function"
    },
    {
      "inputs": [],
      "name": "renounceOwnership",
      "outputs": [],
      "stateMutability": "nonpayable",
      "type": "function"
    },
    {
      "inputs": [
        {
          "internalType": "address",
          "name": "newOwner",
          "type": "address"
        }
      ],
      "name": "transferOwnership",
      "outputs": [],
      "stateMutability": "nonpayable",
      "type": "function"
    },
    {
      "inputs": [],
      "name": "unpause",
      "outputs": [],
      "stateMutability": "nonpayable",
      "type": "function"
    },
    {
      "inputs": [
        {
          "internalType": "address",
          "name": "_nft",
          "type": "address"
        },
        {
          "internalType": "uint256",
          "name": "_tokenType",
          "type": "uint256"
        },
        {
          "internalType": "uint256",
          "name": "_price",
          "type": "uint256"
        }
      ],
      "name": "updateOrder",
      "outputs": [],
      "stateMutability": "nonpayable",
      "type": "function"
    }
  ],
  "transactionHash": "0x30a9eb6d8a739c67d7d609e997df6080f6cbc8a22395e1300582defe7c294f6d",
  "args": [
    "0xd986b2729416ffDFAF2fa0e4E6b5a2453cf6C323",
    300,
    [
      "0xd859Bc152D041B4B6486e55F8635473b86F3b4ee"
    ],
    [
      "0x4a291477C8901672BCa0E4d2bF391587276A4a37",
      "0x3e919A1284A374260D99276672D354fDe2a09Cc0",
      "0x252271ab394549a8784292cf8dEe184260f0B2Bb"
    ],
    [
      0,
      1,
      2
    ]
  ],
  "solcInputHash": "7442c7403818f56429e73beaef0ba123",
  "bytecode": "0x60806040523480156200001157600080fd5b5060405162002ca938038062002ca98339810160408190526200003491620002da565b6000620000406200015b565b600080546001600160a01b0319166001600160a01b0383169081178255604051929350917f8be0079c531659141344cd1fd0a4f28419497f9722a3daafe3b4186f6b6457e0908290a3506000805460ff60a01b1916905560018055600280546001600160a01b0319166001600160a01b03871617905560038490558251620000d09060049060208601906200015f565b508151620000e69060059060208501906200015f565b508051620000fc906006906020840190620001c9565b50506040805160a08101825260008082526020820181905291810182905260608101829052608001819052600780546001600160a01b03199081169091556008805490911690556009819055600a819055600b55506200044492505050565b3390565b828054828255906000526020600020908101928215620001b7579160200282015b82811115620001b757825182546001600160a01b0319166001600160a01b0390911617825560209092019160019091019062000180565b50620001c592915062000215565b5090565b82805482825590600052602060002090810192821562000207579160200282015b8281111562000207578251825591602001919060010190620001ea565b50620001c592915062000236565b5b80821115620001c55780546001600160a01b031916815560010162000216565b5b80821115620001c5576000815560010162000237565b600082601f8301126200025e578081fd5b8151620002756200026f826200040b565b620003e4565b8181529150602080830190848101818402860182018710156200029757600080fd5b6000805b85811015620002ce5782516001600160a01b0381168114620002bb578283fd5b855293830193918301916001016200029b565b50505050505092915050565b600080600080600060a08688031215620002f2578081fd5b8551620002ff816200042b565b60208781015160408901519297509550906001600160401b038082111562000325578384fd5b620003338a838b016200024d565b9550606089015191508082111562000349578384fd5b620003578a838b016200024d565b945060808901519150808211156200036d578384fd5b508701601f810189136200037f578283fd5b8051620003906200026f826200040b565b81815283810190838501858402850186018d1015620003ad578687fd5b8694505b83851015620003d1578051835260019490940193918501918501620003b1565b5080955050505050509295509295909350565b6040518181016001600160401b03811182821017156200040357600080fd5b604052919050565b60006001600160401b0382111562000421578081fd5b5060209081020190565b6001600160a01b03811681146200044157600080fd5b50565b61285580620004546000396000f3fe608060405234801561001057600080fd5b50600436106101cf5760003560e01c80636a1db1bf116101045780639dab3ccd116100a2578063f2fde38b11610071578063f2fde38b14610398578063f3847fd7146103ab578063f7f33eda146103be578063f9eaee0d146103d1576101cf565b80639dab3ccd14610357578063ae4c46c71461036a578063dcdc88e91461037d578063ecefc70514610390576101cf565b80638456cb59116100de5780638456cb59146103215780638d225c7e146103295780638da5cb5b1461033c5780638ed8d83314610344576101cf565b80636a1db1bf146102f35780636a20613714610306578063715018a614610319576101cf565b80633f4ba83a11610171578063587b0fb81161014b578063587b0fb8146102b05780635c975abb146102c35780635e5f2e26146102cb57806369e15404146102de576101cf565b80633f4ba83a1461028d5780634690484014610295578063509222cd1461029d576101cf565b806323604071116101ad57806323604071146102325780632e2dc43e146102455780633d5c57011461025a5780633ed9cdcd1461026d576101cf565b80630ec25de4146101d4578063150b7a02146101fd57806317dbb3891461021d575b600080fd5b6101e76101e2366004611dbf565b6103e4565b6040516101f491906121d5565b60405180910390f35b61021061020b366004611dda565b61043d565b6040516101f491906121e0565b61023061022b366004611f85565b61044d565b005b610230610240366004611dbf565b6104cd565b61024d610554565b6040516101f4919061215b565b61024d610268366004611dbf565b6108a1565b61028061027b3660046120c6565b610950565b6040516101f491906120fa565b610230610977565b6102806109e4565b6101e76102ab366004611dbf565b6109f3565b6102306102be366004611e90565b610a45565b6101e7610d11565b6102806102d93660046120c6565b610d21565b6102e6610d2e565b6040516101f49190612767565b6102306103013660046120c6565b610d34565b610230610314366004611eee565b610d78565b610230610f11565b610230610f9a565b6102806103373660046120c6565b611006565b610280611013565b6101e76103523660046120c6565b611022565b6102e66103653660046120c6565b611061565b610230610378366004611f85565b61107f565b61023061038b366004612022565b6110f2565b6102e6611165565b6102306103a6366004611dbf565b61116b565b6102306103b9366004611f4b565b61122b565b6102306103cc366004611f18565b6114e9565b6101e76103df366004611dbf565b611608565b6000805b60055481101561043657826001600160a01b03166005828154811061040957fe5b6000918252602090912001546001600160a01b0316141561042e576001915050610438565b6001016103e8565b505b919050565b630a85bd0160e11b949350505050565b61045561165a565b6001600160a01b0316610466611013565b6001600160a01b0316146104955760405162461bcd60e51b815260040161048c90612582565b60405180910390fd5b60008151116104b65760405162461bcd60e51b815260040161048c906125fe565b80516104c9906004906020840190611c87565b5050565b6104d561165a565b6001600160a01b03166104e6611013565b6001600160a01b03161461050c5760405162461bcd60e51b815260040161048c90612582565b6001600160a01b0381166105325760405162461bcd60e51b815260040161048c90612490565b600280546001600160a01b0319166001600160a01b0392909216919091179055565b60606000805b600c548110156106755760005b600d6000600c848154811061057857fe5b60009182526020808320909101546001600160a01b0316835282019290925260400190205481101561066c576000600d6000600c85815481106105b757fe5b60009182526020808320909101546001600160a01b0316835282019290925260400190208054839081106105e757fe5b90600052602060002090600502016003015411801561065857506000600d6000600c858154811061061457fe5b60009182526020808320909101546001600160a01b03168352820192909252604001902080548390811061064457fe5b906000526020600020906005020160040154115b15610664576001909201915b600101610567565b5060010161055a565b5060008167ffffffffffffffff8111801561068f57600080fd5b506040519080825280602002602001820160405280156106c957816020015b6106b6611cec565b8152602001906001900390816106ae5790505b50925060005b600c5481101561089b5760005b600d6000600c84815481106106ed57fe5b60009182526020808320909101546001600160a01b03168352820192909252604001902054811015610892576000600d6000600c858154811061072c57fe5b60009182526020808320909101546001600160a01b03168352820192909252604001902080548390811061075c57fe5b9060005260206000209060050201600301541180156107cd57506000600d6000600c858154811061078957fe5b60009182526020808320909101546001600160a01b0316835282019290925260400190208054839081106107b957fe5b906000526020600020906005020160040154115b1561088a57600d6000600c84815481106107e357fe5b60009182526020808320909101546001600160a01b03168352820192909252604001902080548290811061081357fe5b60009182526020918290206040805160a081018252600590930290910180546001600160a01b03908116845260018201541693830193909352600283015490820152600382015460608201526004909101546080820152855186908590811061087857fe5b60209081029190910101526001909201915b6001016106dc565b506001016106cf565b50505090565b6001600160a01b0381166000908152600d60209081526040808320805482518185028101850190935280835260609492939192909184015b828210156109455760008481526020908190206040805160a0810182526005860290920180546001600160a01b039081168452600180830154909116848601526002820154928401929092526003810154606084015260040154608083015290835290920191016108d9565b505050509050919050565b6005818154811061095d57fe5b6000918252602090912001546001600160a01b0316905081565b61097f61165a565b6001600160a01b0316610990611013565b6001600160a01b0316146109b65760405162461bcd60e51b815260040161048c90612582565b6109be610d11565b6109da5760405162461bcd60e51b815260040161048c90612228565b6109e261165e565b565b6002546001600160a01b031681565b6000805b600c5481101561043657826001600160a01b0316600c8281548110610a1857fe5b6000918252602090912001546001600160a01b03161415610a3d576001915050610438565b6001016109f7565b610a4d610d11565b15610a6a5760405162461bcd60e51b815260040161048c906124d5565b60026001541415610a8d5760405162461bcd60e51b815260040161048c906126f9565b60026001556001600160a01b038516610ab85760405162461bcd60e51b815260040161048c90612730565b60008211610ad85760405162461bcd60e51b815260040161048c906123a5565b610ae184611608565b610afd5760405162461bcd60e51b815260040161048c906124ff565b610b0683611022565b610b225760405162461bcd60e51b815260040161048c90612317565b610b2b816103e4565b610b475760405162461bcd60e51b815260040161048c90612360565b610b528585856116cf565b610b6e5760405162461bcd60e51b815260040161048c9061266c565b600080610b7c878787611703565b915091508382600301541015610ba45760405162461bcd60e51b815260040161048c906122d3565b6000610bbd83600401548661180e90919063ffffffff16565b90508483600301541415610bda57610bd58883611851565b610bef565b6003830154610be99086611977565b60038401555b83610c22610bfb61165a565b6002546001600160a01b0316610c108561199f565b6001600160a01b0385169291906119c2565b610c37610c2d61165a565b8a610c1085611a20565b876001600160a01b0316633ee9f8bb30610c4f61165a565b8a8a6040518563ffffffff1660e01b8152600401610c70949392919061210e565b600060405180830381600087803b158015610c8a57600080fd5b505af1158015610c9e573d6000803e3d6000fd5b50505050876001600160a01b0316610cb461165a565b6001600160a01b03168a6001600160a01b03167f6126bf0743f21056038e3d5b010ad0303b2f08c4073871f159ce7f49d0a68d428a8a87604051610cfa9392919061277e565b60405180910390a450506001805550505050505050565b600054600160a01b900460ff1690565b6004818154811061095d57fe5b60035481565b610d3c61165a565b6001600160a01b0316610d4d611013565b6001600160a01b031614610d735760405162461bcd60e51b815260040161048c90612582565b600355565b610d80610d11565b15610d9d5760405162461bcd60e51b815260040161048c906124d5565b610da682611608565b610dc25760405162461bcd60e51b815260040161048c906124ff565b610dcb81611022565b610de75760405162461bcd60e51b815260040161048c90612317565b610df9610df261165a565b83836116cf565b610e155760405162461bcd60e51b815260040161048c9061266c565b600080610e2a610e2361165a565b8585611703565b60038201549193509150610e45610e3f61165a565b83611851565b8015610eb757846001600160a01b0316633ee9f8bb30610e6361165a565b87856040518563ffffffff1660e01b8152600401610e84949392919061210e565b600060405180830381600087803b158015610e9e57600080fd5b505af1158015610eb2573d6000803e3d6000fd5b505050505b83856001600160a01b0316610eca61165a565b6001600160a01b03167fdfdc8e23bf47bd8b72643392fb1484e25a8b28fe2f1e310ec0e4d4badb303fbc84604051610f029190612767565b60405180910390a45050505050565b610f1961165a565b6001600160a01b0316610f2a611013565b6001600160a01b031614610f505760405162461bcd60e51b815260040161048c90612582565b600080546040516001600160a01b03909116907f8be0079c531659141344cd1fd0a4f28419497f9722a3daafe3b4186f6b6457e0908390a3600080546001600160a01b0319169055565b610fa261165a565b6001600160a01b0316610fb3611013565b6001600160a01b031614610fd95760405162461bcd60e51b815260040161048c90612582565b610fe1610d11565b15610ffe5760405162461bcd60e51b815260040161048c906124d5565b6109e2611a49565b600c818154811061095d57fe5b6000546001600160a01b031690565b6000805b60065481101561043657826006828154811061103e57fe5b90600052602060002001541415611059576001915050610438565b600101611026565b6006818154811061106e57fe5b600091825260209091200154905081565b61108761165a565b6001600160a01b0316611098611013565b6001600160a01b0316146110be5760405162461bcd60e51b815260040161048c90612582565b60008151116110df5760405162461bcd60e51b815260040161048c906125fe565b80516104c9906005906020840190611c87565b6110fa61165a565b6001600160a01b031661110b611013565b6001600160a01b0316146111315760405162461bcd60e51b815260040161048c90612582565b60008151116111525760405162461bcd60e51b815260040161048c906125fe565b80516104c9906006906020840190611d2d565b61271081565b61117361165a565b6001600160a01b0316611184611013565b6001600160a01b0316146111aa5760405162461bcd60e51b815260040161048c90612582565b6001600160a01b0381166111d05760405162461bcd60e51b815260040161048c9061228d565b600080546040516001600160a01b03808516939216917f8be0079c531659141344cd1fd0a4f28419497f9722a3daafe3b4186f6b6457e091a3600080546001600160a01b0319166001600160a01b0392909216919091179055565b611233610d11565b156112505760405162461bcd60e51b815260040161048c906124d5565b600082116112705760405162461bcd60e51b815260040161048c906123a5565b600081116112905760405162461bcd60e51b815260040161048c90612256565b61129984611608565b6112b55760405162461bcd60e51b815260040161048c906124ff565b6112be83611022565b6112da5760405162461bcd60e51b815260040161048c90612317565b6112ec6112e561165a565b85856116cf565b156113095760405162461bcd60e51b815260040161048c906125b7565b836001600160a01b0316633ee9f8bb61132061165a565b3086866040518563ffffffff1660e01b8152600401611342949392919061210e565b600060405180830381600087803b15801561135c57600080fd5b505af1158015611370573d6000803e3d6000fd5b50505050600d600061138061165a565b6001600160a01b03166001600160a01b031681526020019081526020016000206040518060a001604052806113b361165a565b6001600160a01b039081168252878116602080840191909152604080840189905260608085018990526080948501889052865460018181018955600098895297849020875160059092020180549186166001600160a01b031992831617815593870151978401805498909516971696909617909255908301516002820155928201516003840155015160049091015561144d6102ab61165a565b61148e57600c61145b61165a565b81546001810183556000928352602090922090910180546001600160a01b0319166001600160a01b039092169190911790555b82846001600160a01b03166114a161165a565b6001600160a01b03167f966afa01eced24bc818c52a7c8f7ea7a2423a043d3d96baacfbc9c3c2c7a80cd85856040516114db929190612770565b60405180910390a450505050565b6114f1610d11565b1561150e5760405162461bcd60e51b815260040161048c906124d5565b6000811161152e5760405162461bcd60e51b815260040161048c90612256565b61153783611608565b6115535760405162461bcd60e51b815260040161048c906124ff565b61155c82611022565b6115785760405162461bcd60e51b815260040161048c90612317565b61158a61158361165a565b84846116cf565b6115a65760405162461bcd60e51b815260040161048c9061266c565b60006115b3610e2361165a565b50600481018390559050826001600160a01b0385166115d061165a565b6001600160a01b03167fb96a2189ad29c78b8386e0c269a44b24ad4db52c3e22536f9cd07736e4200ca4856040516114db9190612767565b6000805b60045481101561043657826001600160a01b03166004828154811061162d57fe5b6000918252602090912001546001600160a01b03161415611652576001915050610438565b60010161160c565b3390565b611666610d11565b6116825760405162461bcd60e51b815260040161048c90612228565b6000805460ff60a01b191690557f5db9ee0a495bf2e6ff9c91a7834c1ba4fdd244a5e8aa4e537bd38aeae4b073aa6116b861165a565b6040516116c591906120fa565b60405180910390a1565b6000806116dd858585611703565b509050600081600401541180156116f8575060008160030154115b9150505b9392505050565b6000806007815b6001600160a01b0387166000908152600d60205260409020548110156117fe576001600160a01b038781166000908152600d602052604090208054918816918390811061175357fe5b60009182526020909120600160059092020101546001600160a01b03161480156117b357506001600160a01b0387166000908152600d6020526040902080548691908390811061179f57fe5b906000526020600020906005020160020154145b156117f6576001600160a01b0387166000908152600d602052604090208054829081106117dc57fe5b906000526020600020906005020181935093505050611806565b60010161170a565b509150600090505b935093915050565b60008261181d5750600061184b565b8282028284828161182a57fe5b04146118485760405162461bcd60e51b815260040161048c90612541565b90505b92915050565b6001600160a01b0382166000908152600d602052604090208054600019810190811061187957fe5b9060005260206000209060050201600d6000846001600160a01b03166001600160a01b0316815260200190815260200160002082815481106118b757fe5b60009182526020808320845460059093020180546001600160a01b03199081166001600160a01b039485161782556001808701549083018054909216908516179055600280860154908201556003808601549082015560049485015494019390935584168152600d9091526040902080548061192f57fe5b60008281526020812060056000199093019283020180546001600160a01b03199081168255600182018054909116905560028101829055600381018290556004015590555050565b6000828211156119995760405162461bcd60e51b815260040161048c906123dc565b50900390565b600061184b6127106119bc6003548561180e90919063ffffffff16565b90611aaa565b611a1a846323b872dd60e01b8585856040516024016119e393929190612137565b60408051601f198184030181529190526020810180516001600160e01b03166001600160e01b031990931692909217909152611adc565b50505050565b600061184b6127106119bc611a4260035461271061197790919063ffffffff16565b859061180e565b611a51610d11565b15611a6e5760405162461bcd60e51b815260040161048c906124d5565b6000805460ff60a01b1916600160a01b1790557f62e78cea01bee320cd4e420270b5ea74000d11b0c9f74754ebdbfc544b05a2586116b861165a565b6000808211611acb5760405162461bcd60e51b815260040161048c90612459565b818381611ad457fe5b049392505050565b6060611b31826040518060400160405280602081526020017f5361666545524332303a206c6f772d6c6576656c2063616c6c206661696c6564815250856001600160a01b0316611b709092919063ffffffff16565b805190915015611b6b5780806020019051810190611b4f91906120a6565b611b6b5760405162461bcd60e51b815260040161048c906126af565b505050565b6060611b7f8484600085611b87565b949350505050565b606082471015611ba95760405162461bcd60e51b815260040161048c90612413565b611bb285611c48565b611bce5760405162461bcd60e51b815260040161048c90612635565b60006060866001600160a01b03168587604051611beb91906120de565b60006040518083038185875af1925050503d8060008114611c28576040519150601f19603f3d011682016040523d82523d6000602084013e611c2d565b606091505b5091509150611c3d828286611c4e565b979650505050505050565b3b151590565b60608315611c5d5750816116fc565b825115611c6d5782518084602001fd5b8160405162461bcd60e51b815260040161048c91906121f5565b828054828255906000526020600020908101928215611cdc579160200282015b82811115611cdc57825182546001600160a01b0319166001600160a01b03909116178255602090920191600190910190611ca7565b50611ce8929150611d74565b5090565b6040518060a0016040528060006001600160a01b0316815260200160006001600160a01b031681526020016000815260200160008152602001600081525090565b828054828255906000526020600020908101928215611d68579160200282015b82811115611d68578251825591602001919060010190611d4d565b50611ce8929150611d93565b5b80821115611ce85780546001600160a01b0319168155600101611d75565b5b80821115611ce85760008155600101611d94565b80356001600160a01b038116811461184b57600080fd5b600060208284031215611dd0578081fd5b6116fc8383611da8565b60008060008060808587031215611def578283fd5b611df98686611da8565b93506020611e0987828801611da8565b935060408601359250606086013567ffffffffffffffff80821115611e2c578384fd5b818801915088601f830112611e3f578384fd5b813581811115611e4d578485fd5b611e5f601f8201601f19168501612794565b91508082528984828501011115611e74578485fd5b8084840185840137810190920192909252939692955090935050565b600080600080600060a08688031215611ea7578081fd5b8535611eb281612807565b94506020860135611ec281612807565b935060408601359250606086013591506080860135611ee081612807565b809150509295509295909350565b60008060408385031215611f00578182fd5b611f0a8484611da8565b946020939093013593505050565b600080600060608486031215611f2c578283fd5b611f368585611da8565b95602085013595506040909401359392505050565b60008060008060808587031215611f60578384fd5b8435611f6b81612807565b966020860135965060408601359560600135945092505050565b60006020808385031215611f97578182fd5b823567ffffffffffffffff811115611fad578283fd5b8301601f81018513611fbd578283fd5b8035611fd0611fcb826127bb565b612794565b8181528381019083850185840285018601891015611fec578687fd5b8694505b83851015612016576120028982611da8565b835260019490940193918501918501611ff0565b50979650505050505050565b60006020808385031215612034578182fd5b823567ffffffffffffffff81111561204a578283fd5b8301601f8101851361205a578283fd5b8035612068611fcb826127bb565b8181528381019083850185840285018601891015612084578687fd5b8694505b83851015612016578035835260019490940193918501918501612088565b6000602082840312156120b7578081fd5b81518015158114611848578182fd5b6000602082840312156120d7578081fd5b5035919050565b600082516120f08184602087016127db565b9190910192915050565b6001600160a01b0391909116815260200190565b6001600160a01b0394851681529290931660208301526040820152606081019190915260800190565b6001600160a01b039384168152919092166020820152604081019190915260600190565b602080825282518282018190526000919060409081850190868401855b828110156121c857815180516001600160a01b0390811686528782015116878601528581015186860152606080820151908601526080908101519085015260a09093019290850190600101612178565b5091979650505050505050565b901515815260200190565b6001600160e01b031991909116815260200190565b60006020825282518060208401526122148160408501602087016127db565b601f01601f19169190910160400192915050565b60208082526014908201527314185d5cd8589b194e881b9bdd081c185d5cd95960621b604082015260600190565b6020808252601d908201527f47726176697354726164696e67506f73743a205a65726f207072696365000000604082015260600190565b60208082526026908201527f4f776e61626c653a206e6577206f776e657220697320746865207a65726f206160408201526564647265737360d01b606082015260800190565b60208082526024908201527f47726176697354726164696e67506f73743a204e6f7420656e6f75676820616d6040820152631bdd5b9d60e21b606082015260800190565b60208082526029908201527f47726176697354726164696e67506f73743a20546f6b656e2074797065206e6f6040820152681d08185b1b1bddd95960ba1b606082015260800190565b60208082526025908201527f47726176697354726164696e67506f73743a20537461626c65206e6f7420616c6040820152641b1bddd95960da1b606082015260800190565b6020808252601e908201527f47726176697354726164696e67506f73743a205a65726f20616d6f756e740000604082015260600190565b6020808252601e908201527f536166654d6174683a207375627472616374696f6e206f766572666c6f770000604082015260600190565b60208082526026908201527f416464726573733a20696e73756666696369656e742062616c616e636520666f6040820152651c8818d85b1b60d21b606082015260800190565b6020808252601a908201527f536166654d6174683a206469766973696f6e206279207a65726f000000000000604082015260600190565b60208082526025908201527f47726176697354726164696e67506f73743a205a65726f2066656520726563696040820152641c1a595b9d60da1b606082015260800190565b60208082526010908201526f14185d5cd8589b194e881c185d5cd95960821b604082015260600190565b60208082526022908201527f47726176697354726164696e67506f73743a204e4654206e6f7420616c6c6f77604082015261195960f21b606082015260800190565b60208082526021908201527f536166654d6174683a206d756c7469706c69636174696f6e206f766572666c6f6040820152607760f81b606082015260800190565b6020808252818101527f4f776e61626c653a2063616c6c6572206973206e6f7420746865206f776e6572604082015260600190565b60208082526027908201527f47726176697354726164696e67506f73743a204f7264657220616c72656164796040820152662065786973747360c81b606082015260800190565b6020808252601e908201527f47726176697354726164696e67506f73743a205a65726f206c656e6774680000604082015260600190565b6020808252601d908201527f416464726573733a2063616c6c20746f206e6f6e2d636f6e7472616374000000604082015260600190565b60208082526023908201527f47726176697354726164696e67506f73743a204f72646572206e6f742065786960408201526273747360e81b606082015260800190565b6020808252602a908201527f5361666545524332303a204552433230206f7065726174696f6e20646964206e6040820152691bdd081cdd58d8d9595960b21b606082015260800190565b6020808252601f908201527f5265656e7472616e637947756172643a207265656e7472616e742063616c6c00604082015260600190565b6020808252601d908201527f47726176697354726164696e67506f73743a205a65726f206d616b6572000000604082015260600190565b90815260200190565b918252602082015260400190565b9283526020830191909152604082015260600190565b60405181810167ffffffffffffffff811182821017156127b357600080fd5b604052919050565b600067ffffffffffffffff8211156127d1578081fd5b5060209081020190565b60005b838110156127f65781810151838201526020016127de565b83811115611a1a5750506000910152565b6001600160a01b038116811461281c57600080fd5b5056fea2646970667358221220e41dddffe19c5567da02bf1f8f650776dda9e3fd1c1aa4653fce0569b6f957ae64736f6c634300060c0033",
  "devdoc": {
    "kind": "dev",
    "methods": {
      "changeAllowedStables(address[])": {
        "details": "Change the protocol allowed stables (owner only)",
        "params": {
          "_list": "Array of allowed stable addresses"
        }
      },
      "changeAllowedTokens(address[])": {
        "details": "Change the protocol allowed tokens (owner only)",
        "params": {
          "_list": "Array of allowed token addresses"
        }
      },
      "changeAllowedTypes(uint256[])": {
        "details": "Change the protocol allowed token types (owner only)",
        "params": {
          "_list": "Array of allowed token types"
        }
      },
      "changeFee(uint256)": {
        "details": "Change the fee paid to the protocol (owner only)",
        "params": {
          "_fee": "New fee to set in basis points"
        }
      },
      "changeFeeRecipient(address)": {
        "details": "Change the protocol fee recipient (owner only)",
        "params": {
          "_recipient": "New protocol fee recipient address"
        }
      },
      "isStableAllowed(address)": {
        "details": "Check that erc token is in the allowed list",
        "params": {
          "_erc": "Address of token"
        }
      },
      "isTokenAllowed(address)": {
        "details": "Check that nft token is in the allowed list",
        "params": {
          "_token": "Address of token"
        }
      },
      "isTypeAllowed(uint256)": {
        "details": "Check that type of nft token is in the allowed list",
        "params": {
          "_type": "Type of NFT token"
        }
      },
      "isUserExists(address)": {
        "details": "Check that user is already in the index, i.e. placed any order",
        "params": {
          "_user": "Address of user"
        }
      },
      "onERC721Received(address,address,uint256,bytes)": {
        "details": "See {IERC721Receiver-onERC721Received}. Always returns `IERC721Receiver.onERC721Received.selector`."
      },
      "owner()": {
        "details": "Returns the address of the current owner."
      },
      "pause()": {
        "details": "Pause all activity of contract orders (owner only)"
      },
      "paused()": {
        "details": "Returns true if the contract is paused, and false otherwise."
      },
      "renounceOwnership()": {
        "details": "Leaves the contract without owner. It will not be possible to call `onlyOwner` functions anymore. Can only be called by the current owner. NOTE: Renouncing ownership will leave the contract without an owner, thereby removing any functionality that is only available to the owner."
      },
      "transferOwnership(address)": {
        "details": "Transfers ownership of the contract to a new account (`newOwner`). Can only be called by the current owner."
      },
      "unpause()": {
        "details": "Unpause all activity of contract orders (owner only)"
      }
    },
    "version": 1
  },
  "userdoc": {
    "kind": "user",
    "methods": {},
    "version": 1
  },
  "storageLayout": {
    "storage": [
      {
        "astId": 290,
        "contract": "contracts/GravisTradingPost.sol:GravisTradingPost",
        "label": "_owner",
        "offset": 0,
        "slot": "0",
        "type": "t_address"
      },
      {
        "astId": 2658,
        "contract": "contracts/GravisTradingPost.sol:GravisTradingPost",
        "label": "_paused",
        "offset": 20,
        "slot": "0",
        "type": "t_bool"
      },
      {
        "astId": 2743,
        "contract": "contracts/GravisTradingPost.sol:GravisTradingPost",
        "label": "_status",
        "offset": 0,
        "slot": "1",
        "type": "t_uint256"
      },
      {
        "astId": 2802,
        "contract": "contracts/GravisTradingPost.sol:GravisTradingPost",
        "label": "feeRecipient",
        "offset": 0,
        "slot": "2",
        "type": "t_address"
      },
      {
        "astId": 2804,
        "contract": "contracts/GravisTradingPost.sol:GravisTradingPost",
        "label": "feeAmount",
        "offset": 0,
        "slot": "3",
        "type": "t_uint256"
      },
      {
        "astId": 2818,
        "contract": "contracts/GravisTradingPost.sol:GravisTradingPost",
        "label": "allowedTokens",
        "offset": 0,
        "slot": "4",
        "type": "t_array(t_address)dyn_storage"
      },
      {
        "astId": 2821,
        "contract": "contracts/GravisTradingPost.sol:GravisTradingPost",
        "label": "allowedStables",
        "offset": 0,
        "slot": "5",
        "type": "t_array(t_address)dyn_storage"
      },
      {
        "astId": 2824,
        "contract": "contracts/GravisTradingPost.sol:GravisTradingPost",
        "label": "allowedTypes",
        "offset": 0,
        "slot": "6",
        "type": "t_array(t_uint256)dyn_storage"
      },
      {
        "astId": 2826,
        "contract": "contracts/GravisTradingPost.sol:GravisTradingPost",
        "label": "_emptyOrder",
        "offset": 0,
        "slot": "7",
        "type": "t_struct(Order)2815_storage"
      },
      {
        "astId": 2829,
        "contract": "contracts/GravisTradingPost.sol:GravisTradingPost",
        "label": "_userIndexes",
        "offset": 0,
        "slot": "12",
        "type": "t_array(t_address)dyn_storage"
      },
      {
        "astId": 2834,
        "contract": "contracts/GravisTradingPost.sol:GravisTradingPost",
        "label": "_userOrders",
        "offset": 0,
        "slot": "13",
        "type": "t_mapping(t_address,t_array(t_struct(Order)2815_storage)dyn_storage)"
      }
    ],
    "types": {
      "t_address": {
        "encoding": "inplace",
        "label": "address",
        "numberOfBytes": "20"
      },
      "t_array(t_address)dyn_storage": {
        "base": "t_address",
        "encoding": "dynamic_array",
        "label": "address[]",
        "numberOfBytes": "32"
      },
      "t_array(t_struct(Order)2815_storage)dyn_storage": {
        "base": "t_struct(Order)2815_storage",
        "encoding": "dynamic_array",
        "label": "struct GravisTradingPost.Order[]",
        "numberOfBytes": "32"
      },
      "t_array(t_uint256)dyn_storage": {
        "base": "t_uint256",
        "encoding": "dynamic_array",
        "label": "uint256[]",
        "numberOfBytes": "32"
      },
      "t_bool": {
        "encoding": "inplace",
        "label": "bool",
        "numberOfBytes": "1"
      },
      "t_mapping(t_address,t_array(t_struct(Order)2815_storage)dyn_storage)": {
        "encoding": "mapping",
        "key": "t_address",
        "label": "mapping(address => struct GravisTradingPost.Order[])",
        "numberOfBytes": "32",
        "value": "t_array(t_struct(Order)2815_storage)dyn_storage"
      },
      "t_struct(Order)2815_storage": {
        "encoding": "inplace",
        "label": "struct GravisTradingPost.Order",
        "members": [
          {
            "astId": 2806,
            "contract": "contracts/GravisTradingPost.sol:GravisTradingPost",
            "label": "maker",
            "offset": 0,
            "slot": "0",
            "type": "t_address"
          },
          {
            "astId": 2808,
            "contract": "contracts/GravisTradingPost.sol:GravisTradingPost",
            "label": "nft",
            "offset": 0,
            "slot": "1",
            "type": "t_address"
          },
          {
            "astId": 2810,
            "contract": "contracts/GravisTradingPost.sol:GravisTradingPost",
            "label": "tokenType",
            "offset": 0,
            "slot": "2",
            "type": "t_uint256"
          },
          {
            "astId": 2812,
            "contract": "contracts/GravisTradingPost.sol:GravisTradingPost",
            "label": "amount",
            "offset": 0,
            "slot": "3",
            "type": "t_uint256"
          },
          {
            "astId": 2814,
            "contract": "contracts/GravisTradingPost.sol:GravisTradingPost",
            "label": "price",
            "offset": 0,
            "slot": "4",
            "type": "t_uint256"
          }
        ],
        "numberOfBytes": "160"
      },
      "t_uint256": {
        "encoding": "inplace",
        "label": "uint256",
        "numberOfBytes": "32"
      }
    }
  }
}